{
  "_format": "hh-sol-artifact-1",
  "contractName": "RescuePaw",
  "sourceName": "contracts/RescuePaw.sol",
  "abi": [
    {
      "inputs": [],
      "stateMutability": "nonpayable",
      "type": "constructor"
    },
    {
      "anonymous": false,
      "inputs": [
        {
          "indexed": false,
          "internalType": "uint256",
          "name": "perroId",
          "type": "uint256"
        },
        {
          "indexed": false,
          "internalType": "uint256",
          "name": "monto",
          "type": "uint256"
        }
      ],
      "name": "Donacion",
      "type": "event"
    },
    {
      "anonymous": false,
      "inputs": [
        {
          "indexed": false,
          "internalType": "uint256",
          "name": "id",
          "type": "uint256"
        },
        {
          "indexed": false,
          "internalType": "string",
          "name": "nombre",
          "type": "string"
        },
        {
          "indexed": false,
          "internalType": "address",
          "name": "padrino",
          "type": "address"
        }
      ],
      "name": "PerroRegistrado",
      "type": "event"
    },
    {
      "anonymous": false,
      "inputs": [
        {
          "indexed": false,
          "internalType": "uint256",
          "name": "perroId",
          "type": "uint256"
        },
        {
          "indexed": false,
          "internalType": "uint256",
          "name": "monto",
          "type": "uint256"
        }
      ],
      "name": "Retiro",
      "type": "event"
    },
    {
      "anonymous": false,
      "inputs": [
        {
          "indexed": false,
          "internalType": "uint256",
          "name": "perroId",
          "type": "uint256"
        }
      ],
      "name": "Verificacion",
      "type": "event"
    },
    {
      "inputs": [],
      "name": "contador",
      "outputs": [
        {
          "internalType": "uint256",
          "name": "",
          "type": "uint256"
        }
      ],
      "stateMutability": "view",
      "type": "function"
    },
    {
      "inputs": [
        {
          "internalType": "uint256",
          "name": "perroId",
          "type": "uint256"
        }
      ],
      "name": "donar",
      "outputs": [],
      "stateMutability": "payable",
      "type": "function"
    },
    {
      "inputs": [],
      "name": "owner",
      "outputs": [
        {
          "internalType": "address",
          "name": "",
          "type": "address"
        }
      ],
      "stateMutability": "view",
      "type": "function"
    },
    {
      "inputs": [
        {
          "internalType": "uint256",
          "name": "",
          "type": "uint256"
        }
      ],
      "name": "perros",
      "outputs": [
        {
          "internalType": "string",
          "name": "nombre",
          "type": "string"
        },
        {
          "internalType": "string",
          "name": "raza",
          "type": "string"
        },
        {
          "internalType": "string",
          "name": "color",
          "type": "string"
        },
        {
          "internalType": "string",
          "name": "tamano",
          "type": "string"
        },
        {
          "internalType": "string",
          "name": "distrito",
          "type": "string"
        },
        {
          "internalType": "string",
          "name": "zonaReferencia",
          "type": "string"
        },
        {
          "internalType": "string",
          "name": "imageHash",
          "type": "string"
        },
        {
          "internalType": "address",
          "name": "padrino",
          "type": "address"
        },
        {
          "internalType": "uint256",
          "name": "verificaciones",
          "type": "uint256"
        },
        {
          "internalType": "uint256",
          "name": "fondos",
          "type": "uint256"
        },
        {
          "internalType": "uint256",
          "name": "nivelConfianza",
          "type": "uint256"
        }
      ],
      "stateMutability": "view",
      "type": "function"
    },
    {
      "inputs": [
        {
          "internalType": "string",
          "name": "nombre",
          "type": "string"
        },
        {
          "internalType": "string",
          "name": "raza",
          "type": "string"
        },
        {
          "internalType": "string",
          "name": "color",
          "type": "string"
        },
        {
          "internalType": "string",
          "name": "tamano",
          "type": "string"
        },
        {
          "internalType": "string",
          "name": "distrito",
          "type": "string"
        },
        {
          "internalType": "string",
          "name": "zonaReferencia",
          "type": "string"
        },
        {
          "internalType": "string",
          "name": "imageHash",
          "type": "string"
        },
        {
          "internalType": "uint256",
          "name": "nivelConfianza",
          "type": "uint256"
        },
        {
          "internalType": "address",
          "name": "padrino",
          "type": "address"
        }
      ],
      "name": "registrarPerro",
      "outputs": [],
      "stateMutability": "nonpayable",
      "type": "function"
    },
    {
      "inputs": [
        {
          "internalType": "uint256",
          "name": "perroId",
          "type": "uint256"
        }
      ],
      "name": "registrarVerificacion",
      "outputs": [],
      "stateMutability": "nonpayable",
      "type": "function"
    },
    {
      "inputs": [
        {
          "internalType": "uint256",
          "name": "perroId",
          "type": "uint256"
        }
      ],
      "name": "retirarFondos",
      "outputs": [],
      "stateMutability": "nonpayable",
      "type": "function"
    },
    {
      "inputs": [],
      "name": "totalPerros",
      "outputs": [
        {
          "internalType": "uint256",
          "name": "",
          "type": "uint256"
        }
      ],
      "stateMutability": "view",
      "type": "function"
    },
    {
      "inputs": [
        {
          "internalType": "uint256",
          "name": "perroId",
          "type": "uint256"
        }
      ],
      "name": "verPerro",
      "outputs": [
        {
          "components": [
            {
              "internalType": "string",
              "name": "nombre",
              "type": "string"
            },
            {
              "internalType": "string",
              "name": "raza",
              "type": "string"
            },
            {
              "internalType": "string",
              "name": "color",
              "type": "string"
            },
            {
              "internalType": "string",
              "name": "tamano",
              "type": "string"
            },
            {
              "internalType": "string",
              "name": "distrito",
              "type": "string"
            },
            {
              "internalType": "string",
              "name": "zonaReferencia",
              "type": "string"
            },
            {
              "internalType": "string",
              "name": "imageHash",
              "type": "string"
            },
            {
              "internalType": "address",
              "name": "padrino",
              "type": "address"
            },
            {
              "internalType": "uint256",
              "name": "verificaciones",
              "type": "uint256"
            },
            {
              "internalType": "uint256",
              "name": "fondos",
              "type": "uint256"
            },
            {
              "internalType": "uint256",
              "name": "nivelConfianza",
              "type": "uint256"
            }
          ],
          "internalType": "struct RescuePaw.Perro",
          "name": "",
          "type": "tuple"
        }
      ],
      "stateMutability": "view",
      "type": "function"
    }
  ],
  "bytecode": "0x608060405234801561001057600080fd5b50600280546001600160a01b03191633179055611801806100326000396000f3fe6080604052600436106100865760003560e01c8063822b7a1911610059578063822b7a19146101315780638da5cb5b14610151578063a32aa71714610189578063ac9eb4a1146101a9578063f34a265a146101c957600080fd5b806318e5001d1461008b5780632266bf1e146100cb57806353d27cc2146100e057806376d1365414610104575b600080fd5b34801561009757600080fd5b506100ab6100a636600461115f565b6101de565b6040516100c29b9a999897969594939291906111be565b60405180910390f35b6100de6100d936600461115f565b6105f3565b005b3480156100ec57600080fd5b506100f660015481565b6040519081526020016100c2565b34801561011057600080fd5b5061012461011f36600461115f565b6106c4565b6040516100c29190611287565b34801561013d57600080fd5b506100de61014c36600461145e565b610b9a565b34801561015d57600080fd5b50600254610171906001600160a01b031681565b6040516001600160a01b0390911681526020016100c2565b34801561019557600080fd5b506100de6101a436600461115f565b610d87565b3480156101b557600080fd5b506100de6101c436600461115f565b611086565b3480156101d557600080fd5b506001546100f6565b6000602081905290815260409020805481906101f990611594565b80601f016020809104026020016040519081016040528092919081815260200182805461022590611594565b80156102725780601f1061024757610100808354040283529160200191610272565b820191906000526020600020905b81548152906001019060200180831161025557829003601f168201915b50505050509080600101805461028790611594565b80601f01602080910402602001604051908101604052809291908181526020018280546102b390611594565b80156103005780601f106102d557610100808354040283529160200191610300565b820191906000526020600020905b8154815290600101906020018083116102e357829003601f168201915b50505050509080600201805461031590611594565b80601f016020809104026020016040519081016040528092919081815260200182805461034190611594565b801561038e5780601f106103635761010080835404028352916020019161038e565b820191906000526020600020905b81548152906001019060200180831161037157829003601f168201915b5050505050908060030180546103a390611594565b80601f01602080910402602001604051908101604052809291908181526020018280546103cf90611594565b801561041c5780601f106103f15761010080835404028352916020019161041c565b820191906000526020600020905b8154815290600101906020018083116103ff57829003601f168201915b50505050509080600401805461043190611594565b80601f016020809104026020016040519081016040528092919081815260200182805461045d90611594565b80156104aa5780601f1061047f576101008083540402835291602001916104aa565b820191906000526020600020905b81548152906001019060200180831161048d57829003601f168201915b5050505050908060050180546104bf90611594565b80601f01602080910402602001604051908101604052809291908181526020018280546104eb90611594565b80156105385780601f1061050d57610100808354040283529160200191610538565b820191906000526020600020905b81548152906001019060200180831161051b57829003601f168201915b50505050509080600601805461054d90611594565b80601f016020809104026020016040519081016040528092919081815260200182805461057990611594565b80156105c65780601f1061059b576101008083540402835291602001916105c6565b820191906000526020600020905b8154815290600101906020018083116105a957829003601f168201915b50505050600783015460088401546009850154600a9095015493946001600160a01b03909216939092508b565b600154811061061d5760405162461bcd60e51b8152600401610614906115ce565b60405180910390fd5b600034116106625760405162461bcd60e51b81526020600482015260126024820152714465626520656e766961722064696e65726f60701b6044820152606401610614565b6000818152602081905260408120600901805434929061068390849061160d565b9091555050604080518281523460208201527f8223ad62d412c98dbe9b75cc53636eb3456fbe4fba40c37da35d480faad701bf91015b60405180910390a150565b61072a6040518061016001604052806060815260200160608152602001606081526020016060815260200160608152602001606081526020016060815260200160006001600160a01b031681526020016000815260200160008152602001600081525090565b600154821061074b5760405162461bcd60e51b8152600401610614906115ce565b600082815260208190526040908190208151610160810190925280548290829061077490611594565b80601f01602080910402602001604051908101604052809291908181526020018280546107a090611594565b80156107ed5780601f106107c2576101008083540402835291602001916107ed565b820191906000526020600020905b8154815290600101906020018083116107d057829003601f168201915b5050505050815260200160018201805461080690611594565b80601f016020809104026020016040519081016040528092919081815260200182805461083290611594565b801561087f5780601f106108545761010080835404028352916020019161087f565b820191906000526020600020905b81548152906001019060200180831161086257829003601f168201915b5050505050815260200160028201805461089890611594565b80601f01602080910402602001604051908101604052809291908181526020018280546108c490611594565b80156109115780601f106108e657610100808354040283529160200191610911565b820191906000526020600020905b8154815290600101906020018083116108f457829003601f168201915b5050505050815260200160038201805461092a90611594565b80601f016020809104026020016040519081016040528092919081815260200182805461095690611594565b80156109a35780601f10610978576101008083540402835291602001916109a3565b820191906000526020600020905b81548152906001019060200180831161098657829003601f168201915b505050505081526020016004820180546109bc90611594565b80601f01602080910402602001604051908101604052809291908181526020018280546109e890611594565b8015610a355780601f10610a0a57610100808354040283529160200191610a35565b820191906000526020600020905b815481529060010190602001808311610a1857829003601f168201915b50505050508152602001600582018054610a4e90611594565b80601f0160208091040260200160405190810160405280929190818152602001828054610a7a90611594565b8015610ac75780601f10610a9c57610100808354040283529160200191610ac7565b820191906000526020600020905b815481529060010190602001808311610aaa57829003601f168201915b50505050508152602001600682018054610ae090611594565b80601f0160208091040260200160405190810160405280929190818152602001828054610b0c90611594565b8015610b595780601f10610b2e57610100808354040283529160200191610b59565b820191906000526020600020905b815481529060010190602001808311610b3c57829003601f168201915b505050918352505060078201546001600160a01b031660208201526008820154604082015260098201546060820152600a9091015460809091015292915050565b6001600160a01b038116610be25760405162461bcd60e51b815260206004820152600f60248201526e57616c6c657420696e76616c69646160881b6044820152606401610614565b6040518061016001604052808a8152602001898152602001888152602001878152602001868152602001858152602001848152602001826001600160a01b0316815260200160008152602001600081526020018381525060008060015481526020019081526020016000206000820151816000019081610c629190611675565b5060208201516001820190610c779082611675565b5060408201516002820190610c8c9082611675565b5060608201516003820190610ca19082611675565b5060808201516004820190610cb69082611675565b5060a08201516005820190610ccb9082611675565b5060c08201516006820190610ce09082611675565b5060e08201516007820180546001600160a01b0319166001600160a01b039092169190911790556101008201516008820155610120820151600982015561014090910151600a909101556001546040517f7ef7645a35a5d2247ff3648c06600c99481b4658899ece8c256b12c06ca265a691610d5f918c908590611735565b60405180910390a160018054906000610d7783611766565b9190505550505050505050505050565b6001548110610da85760405162461bcd60e51b8152600401610614906115ce565b600081815260208190526040902060078101546001600160a01b03163314610e075760405162461bcd60e51b81526020600482015260126024820152714e6f206572657320656c2070616472696e6f60701b6044820152606401610614565b600381600801541015610e6f5760405162461bcd60e51b815260206004820152602a60248201527f4e6f2063756d706c6520636f6e206c6173203320766572696669636163696f6e6044820152696573206d696e696d617360b01b6064820152608401610614565b6000816009015411610ec35760405162461bcd60e51b815260206004820152601860248201527f4e6f2068617920666f6e646f73206163756d756c61646f7300000000000000006044820152606401610614565b600981015460006064610ed783600561177f565b610ee19190611796565b90506000610eef82846117b8565b600060098601819055600786015460405192935090916001600160a01b039091169083908381818185875af1925050503d8060008114610f4b576040519150601f19603f3d011682016040523d82523d6000602084013e610f50565b606091505b5050905080610fa15760405162461bcd60e51b815260206004820152601e60248201527f46616c6c6f207472616e73666572656e63696120616c2070616472696e6f00006044820152606401610614565b6002546040516000916001600160a01b03169085908381818185875af1925050503d8060008114610fee576040519150601f19603f3d011682016040523d82523d6000602084013e610ff3565b606091505b50509050806110445760405162461bcd60e51b815260206004820152601f60248201527f46616c6c6f207472616e73666572656e63696120646520636f6d6973696f6e006044820152606401610614565b60408051888152602081018790527f15103be22c5aaa9ab5629e2e8619b463c082980443f630efcf9540fde4730396910160405180910390a150505050505050565b6002546001600160a01b031633146110ec5760405162461bcd60e51b8152602060048201526024808201527f536f6c6f20656c204167656e746520284f776e6572292070756564652076616c60448201526334b230b960e11b6064820152608401610614565b600154811061110d5760405162461bcd60e51b8152600401610614906115ce565b600081815260208190526040812060080180549161112a83611766565b90915550506040518181527f7d9bf5580523d0cb2108360ed92a1d7bf8bf1d5d51ce32fd62710dc287636f44906020016106b9565b60006020828403121561117157600080fd5b5035919050565b6000815180845260005b8181101561119e57602081850181015186830182015201611182565b506000602082860101526020601f19601f83011685010191505092915050565b60006101608083526111d28184018f611178565b905082810360208401526111e6818e611178565b905082810360408401526111fa818d611178565b9050828103606084015261120e818c611178565b90508281036080840152611222818b611178565b905082810360a0840152611236818a611178565b905082810360c084015261124a8189611178565b91505061126260e08301876001600160a01b03169052565b8461010083015283610120830152826101408301529c9b505050505050505050505050565b60208152600082516101608060208501526112a6610180850183611178565b91506020850151601f19808685030160408701526112c48483611178565b935060408701519150808685030160608701526112e18483611178565b935060608701519150808685030160808701526112fe8483611178565b935060808701519150808685030160a087015261131b8483611178565b935060a08701519150808685030160c08701526113388483611178565b935060c08701519150808685030160e0870152506113568382611178565b92505060e0850151610100611375818701836001600160a01b03169052565b86015161012086810191909152860151610140808701919091529095015193019290925250919050565b634e487b7160e01b600052604160045260246000fd5b600082601f8301126113c657600080fd5b813567ffffffffffffffff808211156113e1576113e161139f565b604051601f8301601f19908116603f011681019082821181831017156114095761140961139f565b8160405283815286602085880101111561142257600080fd5b836020870160208301376000602085830101528094505050505092915050565b80356001600160a01b038116811461145957600080fd5b919050565b60008060008060008060008060006101208a8c03121561147d57600080fd5b893567ffffffffffffffff8082111561149557600080fd5b6114a18d838e016113b5565b9a5060208c01359150808211156114b757600080fd5b6114c38d838e016113b5565b995060408c01359150808211156114d957600080fd5b6114e58d838e016113b5565b985060608c01359150808211156114fb57600080fd5b6115078d838e016113b5565b975060808c013591508082111561151d57600080fd5b6115298d838e016113b5565b965060a08c013591508082111561153f57600080fd5b61154b8d838e016113b5565b955060c08c013591508082111561156157600080fd5b5061156e8c828d016113b5565b93505060e08a013591506115856101008b01611442565b90509295985092959850929598565b600181811c908216806115a857607f821691505b6020821081036115c857634e487b7160e01b600052602260045260246000fd5b50919050565b6020808252600f908201526e506572726f206e6f2065786973746560881b604082015260600190565b634e487b7160e01b600052601160045260246000fd5b80820180821115611620576116206115f7565b92915050565b601f82111561167057600081815260208120601f850160051c8101602086101561164d5750805b601f850160051c820191505b8181101561166c57828155600101611659565b5050505b505050565b815167ffffffffffffffff81111561168f5761168f61139f565b6116a38161169d8454611594565b84611626565b602080601f8311600181146116d857600084156116c05750858301515b600019600386901b1c1916600185901b17855561166c565b600085815260208120601f198616915b82811015611707578886015182559484019460019091019084016116e8565b50858210156117255787850151600019600388901b60f8161c191681555b5050505050600190811b01905550565b83815260606020820152600061174e6060830185611178565b905060018060a01b0383166040830152949350505050565b600060018201611778576117786115f7565b5060010190565b8082028115828204841417611620576116206115f7565b6000826117b357634e487b7160e01b600052601260045260246000fd5b500490565b81810381811115611620576116206115f756fea26469706673582212203d53332d25ded8a55f11d0f7a1726461712cc88adb1b026ae05faab8466ace1664736f6c63430008140033",
  "linkReferences": {},
  "deployedLinkReferences": {}
}